:100000000C948A000C94B2000C94B2000C94B200D0
:100010000C94B2000C94B2000C94B2000C94B20098
:100020000C94B2000C94B2000C94B2000C94B20088
:100030000C94B2000C94B2000C94B2000C94B20078
:100040000C94C8090C94B2000C9496090C94700995
:100050000C94B2000C94B2000C94B2000C94B20058
:100060000C94120A0C94B20008000000BE922449BD
:10007000123EABAAAA2ABECDCCCC4C3E00000080DA
:10008000BEABAAAAAA3E00000000BF000000803F4D
:100090000000000000084178D3BB4387D1133D190D
:1000A0000E3CC3BD4282AD2B3E68EC8276BED98F3A
:1000B000E1A93E4C80EFFFBE01C4FF7F3F0000007E
:1000C0000000000000080002010000030407000017
:1000D00000000000000000000000250028002B00A8
:1000E00000000000240027002A0004040404040483
:1000F00004040202020202020303030303030102D7
:1001000004081020408001020408102001020408A5
:100110001020310B11241FBECFEFD8E0DEBFCDBFC2
:1001200012E0A0E0B1E0E0EDFDE202C005900D922A
:10013000AA32B107D9F724E0AAE2B2E001C01D92C9
:10014000A535B207E1F710E0CAE8D0E004C0219776
:10015000FE010E94E016C938D107C9F70E940C0CB5
:100160000C94E6160C94000090E0FC01E250FF4F66
:10017000249186519F4FFC018491882399F090E04F
:10018000880F991FFC01E052FF4FA591B491FC012B
:10019000EA52FF4F859194918FB7F894EC91E22B3E
:1001A000EC938FBF08954F925F926F927F928F92E0
:1001B0009F92AF92BF92CF92DF92EF92FF924090C8
:1001C000B8035090B9036090BA037090BB03C0901D
:1001D000B003D090B103E090B203F090B30320E0FD
:1001E00030E0A901C301B2010E94C21518160CF03B
:1001F00061C08090B4039090B503A090B603B09016
:10020000B70320E030E0A901C501B4010E94C21586
:1002100018160CF04FC023E333E343E35FE3C3015D
:10022000B2010E9417162B013C0120E030E040E2B1
:1002300051E4C501B4010E946F149B01AC01C301DC
:10024000B2010E946F149B01AC01C701B6010E946C
:10025000FD136093B0037093B1038093B203909346
:10026000B30320E030E040EA51E46091B0037091C4
:10027000B1038091B2039091B3030E946A1487FF87
:100280000CC080E090E0A0EAB1E48093B0039093CA
:10029000B103A093B203B093B303FF90EF90DF904C
:1002A000CF90BF90AF909F908F907F906F905F9016
:1002B0004F90089524EA30E74DE75FE3C701B601A8
:1002C0000E941716C6CF80917F0290918002891BF1
:1002D000990B089508950895AF92BF92CF92DF923F
:1002E000EF92FF920F931F93CF93DF936C017B01EB
:1002F0008B01040F151FEB015E01AE18BF08C0177C
:10030000D10759F06991D601ED91FC910190F081EE
:10031000E02DC6010995892B79F7C501DF91CF91B1
:100320001F910F91FF90EF90DF90CF90BF90AF9013
:100330000895FC01538D448D252F30E0842F90E0EB
:10034000821B930B541710F0CF96089501970895D0
:10035000FC01918D828D981761F0A28DAE0FBF2F99
:10036000B11D5D968C91928D9F5F9F73928F90E0EF
:1003700008958FEF9FEF0895FC01918D828D98175E
:1003800031F0828DE80FF11D858D90E008958FEF9B
:100390009FEF0895FC01918D228D892F90E0805C64
:1003A0009F4F821B91098F739927089581EF92E0E7
:1003B0000E94CA0121E0892B09F420E0822F0895D0
:1003C00080E090E0892B29F00E94D60181110C94E5
:1003D00000000895FC01A48DA80FB92FB11DA35AE8
:1003E000BF4F2C91848D90E001968F739927848F55
:1003F000A689B7892C93A089B1898C918370806478
:100400008C93938D848D981306C00288F389E02D18
:1004100080818F7D80830895EF92FF920F931F93C9
:10042000CF93DF93EC0181E0888F9B8D8C8D9813A7
:100430001AC0E889F989808185FF15C09FB7F894B3
:10044000EE89FF896083E889F989808183708064FF
:1004500080839FBF81E090E0DF91CF911F910F914A
:10046000FF90EF900895F62E0B8D10E00F5F1F4F59
:100470000F731127E02E8C8D8E110CC00FB607FC68
:10048000FACFE889F989808185FFF5CFCE010E94F6
:10049000EA01F1CFEB8DEC0FFD2FF11DE35AFF4F79
:1004A000F0829FB7F8940B8FEA89FB898081806284
:1004B000CFCFCF93DF93EC01888D8823B9F0AA8941
:1004C000BB89E889F9898C9185FD03C0808186FD0F
:1004D0000DC00FB607FCF7CF8C9185FFF2CF80815E
:1004E00085FFEDCFCE010E94EA01E9CFDF91CF91E8
:1004F000089590E0FC01EE53FF4F2491FC01E2507F
:10050000FF4F3491FC01E651FF4FE491EE23C9F017
:10051000222339F0233001F1A8F4213019F12230DF
:1005200029F1F0E0EE0FFF1FEA52FF4FA591B491C1
:100530008FB7F894EC91611126C030953E233C931F
:100540008FBF08952730A9F02830C9F0243049F72B
:10055000809180008F7D03C0809180008F77809391
:100560008000DFCF84B58F7784BDDBCF84B58F7DEE
:10057000FBCF8091B0008F778093B000D2CF809175
:10058000B0008F7DF9CF3E2BDACF3FB7F894809142
:10059000730290917402A0917502B091760226B513
:1005A000A89B05C02F3F19F00196A11DB11D3FBFAB
:1005B000BA2FA92F982F8827BC01CD01620F711D7A
:1005C000811D911D42E0660F771F881F991F4A9574
:1005D000D1F708958F929F92AF92BF92CF92DF9200
:1005E000EF92FF924B015C010E94C5026B017C01FE
:1005F0000E94C5026C197D098E099F09683E7340EF
:1006000081059105A8F321E0821A9108A108B1089B
:1006100088EEC80E83E0D81EE11CF11C8114910401
:10062000A104B10429F7FF90EF90DF90CF90BF9025
:10063000AF909F908F9008952FB7F89460916F02BC
:100640007091700280917102909172022FBF089593
:1006500020914B02260F3327331F21323105ECF452
:100660002091C702FC0190E080E0243069F082E034
:100670000895A0914B022191AC01455D5D4FA40FFF
:10068000B52FB11D2C930196861798F380914B02DC
:10069000680F60934B0280E0089581E00895109206
:1006A000C70281E08093C6021092A10261E082E15C
:1006B0000E94790261E083E10E947902E9EBF0E0B7
:1006C00080818E7F808380818D7F808388E480938A
:1006D000B80085E48093BC000895CF93DF9391E048
:1006E00090932A028823B9F0C091B800D091BA0043
:1006F0008091BC008A7B8093BC0060E082E10E9414
:10070000790260E083E10E9479020E944F03D09356
:10071000BA00C093B800DF91CF9108958F929F9255
:10072000AF92BF92CF92DF92EF92FF920F931F93FF
:10073000CF93DF93D091F002D13208F0D7C0182FB9
:10074000C091EF020E94C5026B017C018091C7023B
:1007500081116BC082E08093C7021093C6028FEFB5
:100760008093C5021092C402D093C302AFECB2E0F2
:10077000E3EAF2E080E0D81391C01092A2028091E7
:10078000A202CC0FC82BC093A2028091A10281309B
:1007900009F088C01092A1020E94C5026B017C0181
:1007A0008091A2028093BB008091C9029091CA02FD
:1007B000A091CB02B091CC02892B8A2B8B2BA1F07C
:1007C0000E94C5020091C9021091CA022091CB0279
:1007D0003091CC026C197D098E099F090617170705
:1007E0002807390708F442C08091BC0083FDD8CFA8
:1007F00085EC8093BC000E94C5026B017C01809156
:10080000C702823009F450C08091C5028F3F09F4BD
:100810006FC08091C502803209F46CC08091C5021E
:10082000803309F469C084E026C08091C9029091A8
:10083000CA02A091CB02B091CC02892B8A2B8B2BC0
:1008400009F484CF0E94C5028090C9029090CA0228
:10085000A090CB02B090CC026C197D098E099F0943
:1008600086169706A806B90608F070CF8091C802D0
:100870000E946D0385E01092CE021092F002109259
:10088000CD02DF91CF911F910F91FF90EF90DF90FC
:10089000CF90BF90AF909F908F9008959D9191932E
:1008A0008F5F69CF85EEA5CF8091C9029091CA0272
:1008B000A091CB02B091CC02892B8A2B8B2B09F40F
:1008C0009ECF0E94C5020091C9021091CA022091D8
:1008D000CB023091CC026C197D098E099F09061755
:1008E00017072807390708F08ACFC0CF81E0C3CFA8
:1008F00080E0C1CF82E0BFCF83E0BDCFCF92DF9257
:10090000EF92FF920F931F93CF93DF93D82FC62FB1
:10091000613208F098C00E94C5026B017C01809191
:10092000C70281116BC081E08093C7028093C60229
:100930009FEF9093C5021092C4029C0F9093C30244
:100940008093A2028091A202DD0FD82BD093A20245
:100950008091A102813009F078C01092A1020E941A
:10096000C5026B017C018091A2028093BB00809143
:10097000C9029091CA02A091CB02B091CC02892BFE
:100980008A2B8B2BA1F00E94C5020091C902109105
:10099000CA022091CB023091CC026C197D098E09DC
:1009A0009F09061717072807390708F448C08091E0
:1009B000BC0083FDD8CF85EC8093BC000E94C502AB
:1009C0006B017C018091C702813009F440C08091A5
:1009D000C4028C1710F4C091C402E3EAF2E0A1E86B
:1009E000B2E080E08C1355C08C2FDF91CF911F9126
:1009F0000F91FF90EF90DF90CF9008958091C90202
:100A00009091CA02A091CB02B091CC02892B8A2B83
:100A10008B2B09F484CF0E94C5020091C90210916A
:100A2000CA022091CB023091CC026C197D098E094B
:100A30009F09061717072807390708F070CF80911C
:100A4000C8020E946D03C0E0CFCF85EEB5CF809184
:100A5000C9029091CA02A091CB02B091CC02892B1D
:100A60008A2B8B2B09F4AECF0E94C5020091C902DC
:100A70001091CA022091CB023091CC026C197D09F1
:100A80008E099F09061717072807390708F09ACF1C
:100A9000D6CF91919D938F5FA5CF0895E09180026D
:100AA00080917F02E81730F4F0E0EF57FD4F80812E
:100AB00090E008958FEF9FEF0895909180028091CC
:100AC0007F022FEF3FEF981748F4E92FF0E0EF5740
:100AD000FD4F208130E09F5F90938002C90108950F
:100AE000CF92DF92EF92FF920F931F93CF93DF93FA
:100AF0007C01CB018A012091CD02222389F0EB01F8
:100B00006B01C40ED51ECC15DD0569F06991D701C6
:100B1000ED91FC910190F081E02DC7010995F3CF93
:100B2000642F0E942803C801DF91CF911F910F917C
:100B3000FF90EF90DF90CF900895CF93DF931F92B7
:100B4000CDB7DEB769832091CD022223F9F0209141
:100B5000F002203258F021E030E0FC0133832283A0
:100B600090E080E00F90DF91CF9108958091CE02C8
:100B7000E82FF0E0E153FD4F998190838F5F8093E0
:100B8000CE028093F00281E090E0ECCF61E0CE01F4
:100B900001960E942803F7CFCF93C62F91E0909340
:100BA000CD0297E59093EF021092CE021092F002E0
:100BB000682F8EE893E00E949D056C2F8EE893E0ED
:100BC0000E949D0581E0CF910C948E03FC0124814D
:100BD00031E03093CD022093EF021092CE021092BA
:100BE000F0028385682B8EE893E00E949D0581E0EA
:100BF0000C948E03089590E080E0089591E0909326
:100C0000CD0297E59093EF021092CE021092F0027F
:100C1000682F8EE893E00E949D0580E00E948E037D
:100C200061E087E50E947E041092800280937F023B
:100C30008EE893E00E945D0508950F931F93CF9374
:100C40008C01C62F0E94E6056C2F6460C8010E94CB
:100C5000E6056C2F6B7FC8010E94E60583EC90E0EF
:100C60000197F1F7CF911F910F9108950F931F9363
:100C7000CF93DF938C01D62FC42F607F642B0E940B
:100C80001D0680E1D89FB00111246C2BC801DF91B3
:100C9000CF911F910F910C941D0640E061E081E31C
:100CA00094E00E9436068BE39FE10197F1F70895E7
:100CB000CF93DF93CDB7DEB728970FB6F894DEBF9A
:100CC0000FBECDBF98E0E8E0F1E0DE0111960190A3
:100CD0000D929A95E1F790913904981708F48FEFE7
:100CE00090E0880F991F21E030E02C0F3D1F820F0C
:100CF000931FFC016081606840E081E394E02896E6
:100D00000FB6F894DEBF0FBECDBFDF91CF910C942C
:100D1000360641E00E94360681E090E00895CF93C8
:100D2000DF93EC0160E08E810E94790261E08E81A8
:100D30000E94790260E08E810E9479028BE891E046
:100D40000197F1F7DF91CF910895CF92DF92EF9263
:100D5000FF920F931F93CF93DF936C017C0187E089
:100D6000E80EF11CD0E0C0E0062F10E0B8010C2E18
:100D700002C0759567950A94E2F76170F701819159
:100D80007F010E9479022196C430D10579F7C6010E
:100D9000DF91CF911F910F91FF90EF90DF90CF9057
:100DA0000C948F06CF92DF92EF92FF920F931F93D6
:100DB000CF93DF93EC01F62E642F8C810E94790291
:100DC0008D818F3F19F060E00E9479020F2D10E0B5
:100DD0008F8584FF25C06E0187E0C80ED11CF12CE1
:100DE000E12CB8010E2C02C0759567950A94E2F7C4
:100DF0006170F60181916F010E947902FFEFEF1A95
:100E0000FF0A88E0E816F10461F7CE01DF91CF9187
:100E10001F910F91FF90EF90DF90CF900C948F0671
:100E2000B80184E0759567958A95E1F7CE010E9437
:100E3000A5066F2DCE01DF91CF911F910F91FF90ED
:100E4000EF90DF90CF900C94A50640E0682F8DE3E3
:100E500094E00C94D20681E00E9425078BE39FE189
:100E60000197F1F70895CF93DF93823029F49091A1
:100E70004C04986090934C04809350041092510459
:100E800080E48093520480E18093530480E5809352
:100E90005404809141040E94B400809142048F3F29
:100EA00011F00E94B400809143040E94B400CDE38D
:100EB000D4E09E012D53344080914C0484FD0AC03F
:100EC00084E090E02196281739073CF48E810E9437
:100ED000B400EFCF88E090E0F5CF8BE39DE0019781
:100EE000F1F760E0809141040E94790260E0809116
:100EF00043040E947902809142048F3F19F060E020
:100F00000E94790280914C0484FD34C063E08DE33B
:100F100094E00E94A506CBE4D6E4CE010197F1F758
:100F200063E08DE394E00E94A5062197F1F763E06A
:100F30008DE394E00E94A50683E592E00197F1F726
:100F400062E08DE394E00E94A50680914C048062EB
:100F50000E94250784E080934D048CE00E942507C1
:100F60000E942B0782E080934E0486E0DF91CF91B0
:100F70000C94250780620E9425078BE496E4019774
:100F8000F1F780914C0480620E94250783E592E08E
:100F90000197F1F780914C0480620E942507D5CF1C
:100FA00041E00E94D20681E090E00895FB010190AB
:100FB0000020E9F73197AF01461B570BDC01ED919B
:100FC000FC910280F381E02D09948F929F92AF9261
:100FD000BF92EF92FF920F931F93CF93DF93CDB702
:100FE000DEB7A1970FB6F894DEBF0FBECDBF7C0170
:100FF000FA01CB0119A2223008F42AE08E010F5D1C
:101000001F4F822E912CB12CA12CBF01A501940160
:101010000E94BE16F901CA016A300CF5605DD80164
:101020006E938D01232B242B252B79F790E080E004
:10103000109721F0BD01C7010E94D607A1960FB6F7
:10104000F894DEBF0FBECDBFDF91CF911F910F91FE
:10105000FF90EF90BF90AF909F908F900895695C44
:10106000DECFCF93DF93BC0181EF92E00E94D607E1
:10107000EC0167E771E081EF92E00E94D6078C0FE8
:101080009D1FDF91CF9108958AE791E00C9431087C
:101090002F923F924F925F926F927F928F929F9288
:1010A000AF92BF92CF92DF92EF92FF921F93CF93B6
:1010B000DF93EC016A017B01722EAB019601CB013B
:1010C000B6010E94841660E871E0811126C04601D5
:1010D0005701E894B7F82FEF3FEF4FE75FE7C501FF
:1010E000B4010E94841681110CC02FEF3FEF4FE72F
:1010F0005FE7C501B4010E946A1464E871E0181644
:1011000064F02FEF3FEF4FE75FE4C701B6010E94A5
:10111000C2151816B4F468E871E0CE01DF91CF91E2
:101120001F91FF90EF90DF90CF90BF90AF909F9076
:101130008F907F906F905F904F903F902F900C9486
:10114000D6072FEF3FEF4FE75FECC701B6010E94D4
:101150006A1487FDE0CF20E030E0A901C701B601A5
:101160000E946A14312C212C87FF0DC0E881F9817F
:101170000190F081E02D6DE2CE0109951C01F7FA96
:10118000F094F7F8F09410E060E070E080E09FE306
:10119000711641F020E030E040E251E40E946F140B
:1011A0001F5FF6CFA70196010E94FE132B013C01A1
:1011B0000E94E1144B015C012AE0BC01A401CE01B4
:1011C0000E94E5077C01E20CF31C1123E1F1C5014B
:1011D000B4010E9410159B01AC01C301B2010E9431
:1011E000FD134B015C01E881F9810190F081E02D54
:1011F0006EE2CE010995E80EF91E115020F120E0B3
:1012000030E040E251E4C501B4010E9417162B0101
:101210003C010E94E1144B01B12CA12C2AE0B50144
:10122000A401CE010E94E507E80EF91EC501B40134
:101230000E9410159B01AC01C301B2010E94FD1375
:101240004B015C01DACFC701DF91CF911F91FF9075
:10125000EF90DF90CF90BF90AF909F908F907F9056
:101260006F905F904F903F902F9008950C94D60709
:1012700085ED8093BC008091C9029091CA02A09133
:10128000CB02B091CC020796A11DB11D23E0B6950B
:10129000A795979587952A95D1F72091BC0024FDB5
:1012A00003C01092C70208954091C9025091CA022A
:1012B0006091CB027091CC02452B462B472B69F3F2
:1012C0000097A105B10541F025E32A95F1F700004B
:1012D0000197A109B109E1CF8091C8020C946D0377
:1012E0001F920F920FB60F9211242F933F934F939B
:1012F0005F936F937F938F939F93AF93BF93EF937E
:10130000FF9381EF92E00E94EA01FF91EF91BF917C
:10131000AF919F918F917F916F915F914F913F918D
:101320002F910F900FBE0F901F9018951F920F9244
:101330000FB60F9211242F938F939F93EF93FF93E8
:10134000E0910103F09102038081E0910703F091A5
:10135000080382FD1BC0908180910A038F5F8F7309
:1013600020910B03821741F0E0910A03F0E0EF5067
:10137000FD4F958F80930A03FF91EF919F918F917D
:101380002F910F900FBE0F901F9018958081F4CF72
:101390001F920F920FB60F9211242F933F938F93AA
:1013A0009F93AF93BF9380916F0290917002A09131
:1013B0007102B091720230916E0223E0230F2D373B
:1013C00058F50196A11DB11D20936E0280936F0206
:1013D00090937002A0937102B09372028091730295
:1013E00090917402A0917502B09176020196A11DB0
:1013F000B11D8093730290937402A0937502B09311
:101400007602BF91AF919F918F913F912F910F9055
:101410000FBE0F901F90189526E8230F0296A11D6E
:10142000B11DD2CF1F920F920FB60F9211242F939E
:101430003F934F935F936F937F938F939F93AF935C
:10144000BF93EF93FF938091B900887F803609F4B2
:101450004AC0F0F5883209F4A7C018F5803109F4C4
:101460009BC0B8F4882309F4F9C0883009F494C00B
:10147000FF91EF91BF91AF919F918F917F916F916C
:101480005F914F913F912F910F900FBE0F901F9042
:101490001895883109F488C0803251F78093C502CD
:1014A00014C0803409F49DC040F48033B9F388330C
:1014B000F9F68093C50285ECB0C0803509F485C08B
:1014C000883509F496C0883499F60E943809D0CF3F
:1014D000883909F48CC038F5883729F050F48836FB
:1014E00011F0803729F683E08093C70210926D02D5
:1014F00057C0883809F47BC0803919F0803809F06A
:10150000B7CF80916D02803208F071C0E0916D021A
:1015100081E08E0F80936D028091BB00F0E0E35B71
:10152000FD4F80833DC0803B39F0E0F4803A09F400
:1015300079C0883A09F09CCF84E08093C70210926A
:101540004C0210924B02E0917902F0917A020995D7
:1015500080914B0281110FC081E080934B02109269
:101560002B0209C0803C09F4A6CF883C09F4A3CF24
:10157000883B09F07DCFE0914C0281E08E0F809393
:101580004C02F0E0E55DFD4F80818093BB009091BF
:101590004C0280914B0229C08091A2028093BB0033
:1015A00085EC8093BC0064CF9091C4028091C3020B
:1015B000981758F5E091C40281E08E0F8093C40221
:1015C000F0E0ED55FD4F8081E9CFE091C40281E06C
:1015D0008E0F8093C4028091BB00F0E0ED55FD4F6B
:1015E00080839091C4028091C3029817C8F285E865
:1015F000D8CFE091C40281E08E0F8093C402809125
:10160000BB00F0E0ED55FD4F80838091C602811153
:101610005CCF81E08093A10284EA8093BC001092A9
:10162000C70226CF85EC8093BC001092C702809140
:101630006D02803230F4E0916D02F0E0E35BFD4F2B
:10164000108260916D0270E0E0917702F091780273
:101650008DE492E0099510926D020ACF1092C502B6
:1016600034CFCF93E1EFF2E01382128288EE93E061
:10167000A0E0B0E084839583A683B7832FE331E0B5
:101680003183208325EC30E03587248724EC30E05B
:101690003787268720EC30E0318B208B21EC30E03F
:1016A000338B228B22EC30E0358B248B26EC30E020
:1016B000378B268B118E128E138E148EEEE8F3E08C
:1016C0001382128284839583A683B78381E591E098
:1016D00091838083EDE3F4E0138212828FE691E040
:1016E000918380838DE084838FEF85838CE0868374
:1016F0008BE087838AE0808789E08187C8E0C287A2
:101700001386148615861686178681E00E94330795
:10171000E1E3F4E01382128283E691E09183808317
:1017200087E2848380E1818782E082871386EAE909
:10173000F3E01182108214821582168217821086BD
:101740001186128613861486158616861786108AC9
:10175000118A128A138A158A148A80E090E0A0EA1E
:10176000B1E4868B978BA08FB18F128E138E148E5F
:10177000158E168E178E10A211A212A213A214A2F9
:1017800015A216A217A210A611A612A613A614A699
:1017900015A616A617A610AA11AA12AA13AA14AA69
:1017A00015AA16AA17AA10AE11AEC6AF8FE090E028
:1017B0009093DA038093D9031092DB031092DC0339
:1017C0001092DD031092DE031092DF031092E0030B
:1017D0001092E1031092E2031092E3031092E403EB
:1017E0001092E5031092E6031092E7031092E803CB
:1017F00089EE93E090932A048093290490932C041B
:1018000080932B0410922E0410922D041092300419
:1018100010922F04CF910895CF93DF93CDB7DEB709
:10182000CD54D1090FB6F894DEBF0FBECDBF78946A
:1018300084B5826084BD84B5816084BD85B58260D5
:1018400085BD85B5816085BD80916E008160809386
:101850006E001092810080918100826080938100EF
:1018600080918100816080938100809180008160FF
:10187000809380008091B10084608093B10080915A
:10188000B00081608093B00080917A008460809382
:101890007A0080917A00826080937A0080917A0049
:1018A000816080937A0080917A00806880937A00CA
:1018B0001092C100E0910103F091020382E0F82E42
:1018C000F082E091FD02F091FE021082E091FF02B1
:1018D000F091000380E1808310920903E0910503F9
:1018E000F091060386E08083E0910303F091040306
:1018F000808180618083E0910303F0910403808103
:1019000088608083E0910303F09104038081806804
:101910008083E0910303F091040380818F7D8083B5
:101920006CE871E081EF92E00E94360982E00E944B
:1019300033076AEA71E08DE394E00E94360968EBB0
:101940007BE080E090E00E94EA020E942B078091F9
:101950003604886080933604F092390462E370E0C4
:1019600080E090E00E94EA0260913C0481E394E010
:101970000E94E60568EE73E080E090E00E94EA02D3
:1019800060E381E394E00E941D060BE416E4C801C5
:101990000197F1F760E381E394E00E941D06C8011E
:1019A0000197F1F760E381E394E00E941D0683E56F
:1019B00092E00197F1F760E281E394E00E941D0656
:1019C00060913604606240E081E394E00E94360654
:1019D00084E08093370440E06CE081E394E00E946F
:1019E00036060E944D06F092380440E066E081E33E
:1019F00094E00E94360640E062E081E394E00E94B9
:101A000036068BE39FE10197F1F788E080933C0471
:101A100060E081E394E00E94E6056AEA71E081E318
:101A200094E00E94360968EB7BE080E090E00E9441
:101A3000EA020E944D0610929D0310929C031092A0
:101A4000800210927F021092CE021092F0020E9449
:101A50004F038AE691E090937A02809379028BE6B5
:101A600091E090937802809377028CE08093B800A5
:101A70008FEF0E94FE05813179F080919C03909157
:101A80009D03892B21F082EC91E00E94310886EEC3
:101A900091E00E943108FFCF62E086E00E94CC0511
:101AA00087E00E94FE05682F636087E00E94CC05F6
:101AB00087E00E94FE05837E682F646087E00E94B5
:101AC000CC056FEF89E00E94CC0587E00E94FE05FF
:101AD000682F606487E00E94CC0563E086E00E9486
:101AE000CC056091D80320E1629FC0011124609170
:101AF000D903682B89E00E94CC0583E393E3A3E735
:101B0000BFE38093C0039093C103A093C203B0933B
:101B1000C3031092C4031092C5031092C60310921F
:101B2000C7038093C8039093C903A093CA03B093DB
:101B3000CB031092CC031092CD031092CE031092DF
:101B4000CF0381E090E090939B0380939A038AEB0C
:101B500091E00E94310882E090E09093DA03809354
:101B6000D9036091D80330E1639FB0011124626012
:101B700089E00E94CC0584E498E09093300480933F
:101B80002F0482E00E94FE05182F84E00E94FE05CB
:101B9000181B1F7009F46FC041E04093CD0287E528
:101BA0008093EF021092CE021092F00265E08EE870
:101BB00093E00E949D0580E00E948E03612F660FD6
:101BC000660F613208F060E287E50E947E04F82E1D
:101BD0001092800280937F0200E080918002F816CC
:101BE00069F08EE893E00E945D05E1E0F0E0EC0F23
:101BF000FD1FE00FF11D80830F5FEFCFE0912B04FD
:101C0000F0912C048091290490912A04DE01119610
:101C100060E04C9111962C911197542F422F1296FF
:101C20003C91129713962C911397349674E0E932F5
:101C3000F70711F4E9EEF3E0518340833383228305
:101C400020912D0430912E042031310509F0FBC084
:101C5000049624E08932920711F489EE93E06F5FD5
:101C600014961613D6CFF0932C04E0932B04909384
:101C70002A048093290480912D0490912E040097CA
:101C800009F4FBC3E0912B04F0912C049F01245034
:101C9000310930932C0420932B04408151816281BF
:101CA00073812A964CAF5DAF6EAF7FAF2A97295EE6
:101CB000334030F465E274E070932C0460932B049D
:101CC000019790932E0480932D04C090C403D0906C
:101CD000C503E090C603F090C7032091C003309184
:101CE000C1034091C2035091C303C701B6010E94D2
:101CF00017164B015C012896EEADFFAD2897BF018A
:101D000090E080E00E9410159B01AC01C501B40178
:101D10000E94FE136093C4037093C5038093C603AF
:101D20009093C703A70196010E94FD1326966CAFFE
:101D30007DAF8EAF9FAF2697C090CC03D090CD03E0
:101D4000E090CE03F090CF032091C8033091C903F7
:101D50004091CA035091CB03C701B6010E941716E8
:101D60004B015C012A962EAD3FAD2A97B90190E058
:101D700080E00E9410159B01AC01C501B4010E94D6
:101D8000FE136093CC037093CD038093CE039093A6
:101D9000CF03A70196010E94FD132E966CAF7DAF75
:101DA0008EAF9FAF2E97C090D403D090D503E09014
:101DB000D603F090D703C092D003D092D103E09223
:101DC000D203F092D30326966CAD7DAD8EAD9FAD60
:101DD000269790582BE73FE14BE75EE30E941716EA
:101DE0004B015C0123E430E742E05FE3C701B60149
:101DF0000E9417169B01AC01C501B4010E94FE139D
:101E00009B01AC012093D4033093D5034093D603B8
:101E10005093D703C701B6010E94FE13062F372E39
:101E2000282E22969FAF22978091AE039091AF0308
:101E30008230910509F4A5C090F4009789F10197CB
:101E4000E9F110E053C1A9014F5F5F4F50932E0499
:101E500040932D04232B09F002CFCF0100CF833014
:101E6000910509F4CDC0049761F70E941C03C0904E
:101E7000BC03D090BD03E090BE03F090BF036C198B
:101E80007D098E099F09693C71058105910508F45A
:101E900070C081E090E09093AF038093AE0369C07F
:101EA0000E941C03613D77408105910550F241E09D
:101EB00050E05093AF034093AE03C3CF2091B003E3
:101EC0003091B1034091B2035091B303602F732D51
:101ED000822D22969FAD22970E94C215181634F5C6
:101EE00020E030E048E454E4602F732D822D2296E8
:101EF0009FAD22970E946A1487FF3EC0502F432D4A
:101F0000322D22962FAD2297852F942FA32FB22FFB
:101F10008093B0039093B103A093B203B093B30343
:101F200062E070E07093AF036093AE030E941C0305
:101F3000C090BC03D090BD03E090BE03F090BF03FF
:101F40006C197D098E099F09613D774081059105D6
:101F500080F01092B4031092B5031092B603109261
:101F6000B7031092B8031092B9031092BA031092FB
:101F7000BB030E94D30065CF50E040E038E424E486
:101F8000C3CF2091B0033091B1034091B20350917F
:101F9000B303602F732D822D22969FAD22970E944E
:101FA0006A1487FF07C023E030E03093AF0320932B
:101FB000AE0347CF20E030E048E454E4602F732DB7
:101FC000822D22969FAD22970E946A1487FF13C02C
:101FD000502F432D322D22962FAD2297852F942FEF
:101FE000A32FB22F8093B0039093B103A093B203B9
:101FF000B093B30326CF50E040E038E424E4EECFC2
:1020000020E030E040EF51E4602F732D822D2296C6
:102010009FAD22970E94FE132091B0033091B1032F
:102020004091B2035091B3030E946A1487FF86C1A6
:10203000802F932DA22D2296BFAD22978093B803B7
:102040009093B903A093BA03B093BB0344E050E06C
:102050005093AF034093AE030E941C03C090BC0397
:10206000D090BD03E090BE03F090BF036C197D09D2
:102070008E099F090E9410156B017C0120E030E061
:10208000A9010E946A14882331F12CEC3CEC4CEC41
:102090005EE36091B4037091B5038091B6039091B3
:1020A000B7030E9417164B015C012AE939E949E19F
:1020B0005FE3C701B6010E9417169B01AC01C50181
:1020C000B4010E94FE136093B4037093B503809330
:1020D000B6039093B7030E941C036093BC037093F4
:1020E000BD038093BE039093BF0311E0C090B4037F
:1020F000D090B503E090B603F090B70320E030E055
:10210000A901C701B6010E946A14882309F42FC1EE
:10211000A701960160E070E080E89FE30E946F14E1
:1021200020E030E04AE754E40E94171620E030E057
:1021300040E752E40E94171620E030E0A9010E9417
:10214000C21518160CF013C1E2E0F0E0F0939B0307
:10215000E0939A0326962CAD3DAD4EAD5FAD26972C
:10216000CA01B9010E9417162091DB033091DC03EC
:102170004091DD035091DE030E94FE136B017C0150
:10218000C092DB03D092DC03E092DD03F092DE0329
:102190002E962CAD3DAD4EAD5FAD2E97CA01B90167
:1021A0000E9417162091DF033091E0034091E10374
:1021B0005091E2030E94FE132B013C014092DF0389
:1021C0005092E0036092E1037092E2036091E403B5
:1021D0007091E5038091E6039091E7036F5F7F4F75
:1021E0008F4F9F4F6093E4037093E5038093E60362
:1021F0009093E703112309F45DC02091E3032F5F5F
:102200002093E303233009F055C00E9410154B01C1
:102210005C01AC019B01C301B2010E946F140E94DA
:10222000CF152B013C01A5019401C701B6010E9405
:102230006F140E94CF156B017C0120E030E048EC68
:1022400052E4C301B2010E941716A70196010E9431
:102250006F146B017C0120E030E044E852E40E94FE
:10226000C21518160CF071C0C701B6010E94E11426
:1022700062541092E4031092E5031092E603109268
:10228000E7031092DF031092E0031092E103109233
:10229000E2031092DB031092DC031092DD03109234
:1022A000DE031092E303E62FF0E0E05FFE4F808153
:1022B0008093E80380919C0390919D038230910567
:1022C00009F47FC08330910509F49EC0019751F550
:1022D0006DEE71E081EF92E00E94360928968EAD96
:1022E0009FAD2897AC0170E060E02AE081EF92E0BA
:1022F0000E94E50760EF71E081EF92E00E943609ED
:102300002A96EEADFFAD2A97AF0170E060E02AE0BB
:1023100081EF92E00E94E50767E771E081EF92E0CC
:102320000E94D607112309F4A6CCE0912F04F09166
:102330003004309709F49FCC09959DCC62E070E0A1
:102340007093AF036093AE037CCD20E030E048E4AF
:1023500052E4C701B6010E94C21560E018160CF0E5
:1023600088CFC701B6010E94E114625382CF8091E9
:102370009A0390919B03029709F09CCF21E030E0F3
:1023800030939B0320939A031092E4031092E50389
:102390001092E6031092E7031092DF031092E0031D
:1023A0001092E1031092E2031092DB031092DC031F
:1023B0001092DD031092DE031092E3031092E80303
:1023C00079CF6DEE71E081EF92E00E94360922E054
:1023D00026964CAD5DAD6EAD7FAD269781EF92E058
:1023E0000E94480860EF71E081EF92E00E94360998
:1023F00022E02E964CAD5DAD6EAD7FAD2E9781EF98
:1024000092E00E94480888CF6DEE71E081EF92E083
:102410000E94360922E0402F532D622D22967FAD77
:10242000229781EF92E00E94480860EF71E081EF0F
:1024300092E00E9436094091B0035091B10360913F
:10244000B2037091B30322E0DACFA5019401C70172
:10245000B6010E94FD1320E038EB48E857E40E94E3
:10246000C21518160CF076C08091D803882309F4A1
:1024700071C081503BC0E1E01EC10E941C0300916D
:10248000A6031091A7032091A8033091A903601B14
:10249000710B820B930B653F71408105910508F428
:1024A00063C08090C4039090C503A090C603B09011
:1024B000C703C090CC03D090CD03E090CE03F09042
:1024C000CF03A7019601C501B4010E94FD1320E0CE
:1024D00038EB48E857E40E94C21518160CF0B5CF47
:1024E0008091D8038F3008F0B0CF8F5F8093D803EE
:1024F0006091D803F0E16F9FC00111246091D9036E
:10250000682B89E00E94CC050E941C036093AA03FB
:102510007093AB038093AC039093AD0380919C03C5
:1025200090919D03892BB1F062EF71E081EF92E011
:102530000E9436094091D80350E070E060E02AE044
:1025400081EF92E00E94E50767E771E081EF92E09A
:102550000E94D6070E941C036093A6037093A703F2
:102560008093A8039093A9030E941C0300917B020F
:1025700010917C0220917D0230917E02601B710BD4
:10258000820B930B693E73408105910508F428C1C5
:1025900065EF71E081EF92E00E943609C090B403CC
:1025A000D090B503E090B603F090B70320E030E0A0
:1025B000A901C701B6010E946A1440E050E0BA01C7
:1025C0008823B1F0A701960160E070E080E89FE306
:1025D0000E946F1420E030E04AE754E40E9417168E
:1025E00020E030E040E752E40E941716AB01BC0146
:1025F00022E081EF92E00E94480866E072E081EFFD
:1026000092E00E9436094091E80350E070E060E0FB
:102610002AE081EF92E00E94E50782E192E00E94C9
:1026200031080E942B07E1E0809150048111E0E025
:10263000E195F0E0E35CFB4F848980680E94250708
:1026400064E172E08DE394E00E943609C090B40327
:10265000D090B503E090B603F090B70320E030E0EF
:10266000A901C701B6010E946A1440E050E0BA0116
:102670008823B1F0A701960160E070E080E89FE355
:102680000E946F1420E030E04AE754E40E941716DD
:1026900020E030E040E752E40E941716AB01BC0195
:1026A00022E08DE394E00E944808E0915004E2307B
:1026B00008F0E1CEE150F0E0E35CFB4F84898068F4
:1026C0000E9425076BE172E08DE394E00E943609D9
:1026D0004091E80350E070E060E02AE08DE394E090
:1026E0000E94E50762E172E08DE394E00E94360902
:1026F0000E941C0360937B0270937C0280937D0296
:1027000090937E020E944D0680E00E94580680E46D
:102710000E94250700E011E0F80161918F018DE32F
:1027200094E00E94D00728E031E020173107A1F79C
:1027300062E272E081E394E00E943609C090B40343
:10274000D090B503E090B603F090B70320E030E0FE
:10275000A901C701B6010E946A1440E050E0BA0125
:102760008823B1F0A701960160E070E080E89FE364
:102770000E946F1420E030E04AE754E40E941716EC
:1027800020E030E040E752E40E941716AB01BC01A4
:1027900022E081E394E00E94480881E00E9458060C
:1027A0006BE172E081E394E00E9436094091E80316
:1027B00050E070E060E02AE081E394E00E94E507E9
:1027C00062E172E081E394E00E9436090E941C03FA
:1027D00060937B0270937C0280937D0290937E02D3
:1027E00080E090E0892B09F4CCC90E94D6018823AF
:1027F00009F4C7C90E940000C4C95058BB27AA27C2
:102800000E9415140C9488150E947A1538F00E94C5
:10281000811520F039F49F3F19F426F40C947715B4
:102820000EF4E095E7FB0C947115E92F0E949915C1
:1028300058F3BA17620773078407950720F079F4F5
:10284000A6F50C94BB150EF4E0950B2EBA2FA02D17
:102850000B01B90190010C01CA01A0011124FF274D
:10286000591B99F0593F50F4503E68F11A16F04048
:10287000A22F232F342F4427585FF3CF4695379547
:102880002795A795F0405395C9F77EF41F16BA0B0C
:10289000620B730B840BBAF09150A1F0FF0FBB1FBA
:1028A000661F771F881FC2F70EC0BA0F621F731F03
:1028B000841F48F4879577956795B795F7959E3F60
:1028C00008F0B0CF9395880F08F09927EE0F9795F1
:1028D000879508950E944D1508F481E008950E949F
:1028E00083140C9488150E94811558F00E947A1563
:1028F00040F029F45F3F29F00C94711551110C94AC
:10290000BC150C9477150E94991568F39923B1F3BF
:10291000552391F3951B550BBB27AA276217730705
:10292000840738F09F5F5F4F220F331F441FAA1F99
:10293000A9F335D00E2E3AF0E0E832D09150504055
:10294000E695001CCAF72BD0FE2F29D0660F771F03
:10295000881FBB1F261737074807AB07B0E809F0E9
:10296000BB0B802DBF01FF2793585F4F3AF09E3F6E
:10297000510578F00C9471150C94BC155F3FE4F38D
:10298000983ED4F3869577956795B795F7959F5FB1
:10299000C9F7880F911D9695879597F90895E1E0FD
:1029A000660F771F881FBB1F621773078407BA075C
:1029B00020F0621B730B840BBA0BEE1F88F7E095B7
:1029C00008950E94A11588F09F5798F0B92F992774
:1029D000B751B0F0E1F0660F771F881F991F1AF00A
:1029E000BA95C9F714C0B13091F00E94BB15B1E09F
:1029F00008950C94BB15672F782F8827B85F39F09E
:102A0000B93FCCF3869577956795B395D9F73EF4A2
:102A100090958095709561957F4F8F4F9F4F08954A
:102A2000E89409C097FB3EF4909580957095619568
:102A30007F4F8F4F9F4F9923A9F0F92F96E9BB271E
:102A40009395F695879577956795B795F111F8CF9A
:102A5000FAF4BB0F11F460FF1BC06F5F7F4F8F4F05
:102A60009F4F16C0882311F096E911C0772321F0FB
:102A70009EE8872F762F05C0662371F096E8862F93
:102A800070E060E02AF09A95660F771F881FDAF7EA
:102A9000880F9695879597F90895990F0008550F17
:102AA000AA0BE0E8FEEF16161706E807F907C0F0D4
:102AB00012161306E407F50798F0621B730B840BDC
:102AC000950B39F40A2661F0232B242B252B21F4B6
:102AD00008950A2609F4A140A6958FEF811D811D56
:102AE000089597F99F6780E870E060E008959FEF90
:102AF00080EC089500240A94161617061806090695
:102B0000089500240A941216130614060506089563
:102B1000092E0394000C11F4882352F0BB0F40F4EB
:102B2000BF2B11F460FF04C06F5F7F4F8F4F9F4F2B
:102B3000089557FD9058440F551F59F05F3F71F0AD
:102B40004795880F97FB991F61F09F3F79F0879514
:102B50000895121613061406551FF2CF4695F1DF9D
:102B600008C0161617061806991FF1CF869571052D
:102B7000610508940895E894BB2766277727CB0161
:102B800097F908950E944D1508F48FEF089516F0F7
:102B90000C9489160C94771568940C9471150E9406
:102BA000A115A8F39923C1F3AEF3DF93CF931F933D
:102BB0000F93FF92C92FDD2788232AF02197660FF4
:102BC000771F881FDAF720E030E040E85FEB9FE3F3
:102BD000883920F0803E38F021968F770E94FE13CE
:102BE000E8E6F0E004C00E94FE13E5E9F0E00E9490
:102BF00097168B01BE01EC01FB2E6F57710975957D
:102C0000771F880B990B0E94121528E132E741E3E8
:102C10005FE30E942A16AF2D9801AE01FF900F913D
:102C20001F91CF91DF910E9415140C9488150E947A
:102C30002A160C9488150E947A1538F00E94811586
:102C400020F0952311F00C9471150C947715112434
:102C50000C94BC150E94991570F3959FC1F3950FC4
:102C600050E0551F629FF001729FBB27F00DB11D10
:102C7000639FAA27F00DB11DAA1F649F6627B00DA0
:102C8000A11D661F829F2227B00DA11D621F739F89
:102C9000B00DA11D621F839FA00D611D221F749F97
:102CA0003327A00D611D231F849F600D211D822FDE
:102CB000762F6A2F11249F5750409AF0F1F0882305
:102CC0004AF0EE0FFF1FBB1F661F771F881F915032
:102CD0005040A9F79E3F510580F00C9471150C945B
:102CE000BC155F3FE4F3983ED4F3869577956795DE
:102CF000B795F795E7959F5FC1F7FE2B880F911D5C
:102D00009695879597F908950E944D15880B990B14
:102D100008959F3F31F0915020F4879577956795FE
:102D2000B795880F911D9695879597F90895DF932C
:102D3000CF931F930F93FF92EF92DF927B018C0151
:102D4000689406C0DA2EEF010E942A16FE01E8946C
:102D5000A5912591359145915591A6F3EF010E94DA
:102D60001514FE019701A801DA9469F7DF90EF903E
:102D7000FF900F911F91CF91DF910895A1E21A2E3C
:102D8000AA1BBB1BFD010DC0AA1FBB1FEE1FFF1F0F
:102D9000A217B307E407F50720F0A21BB30BE40B5F
:102DA000F50B661F771F881F991F1A9469F76095A6
:102DB0007095809590959B01AC01BD01CF01089560
:102DC000EE0FFF1F0590F491E02D0994F894FFCFCA
:102DD000000A1F1F0E0400000000400014005400F1
:102DE00064646464636363636363626262626261B6
:102DF00061616161616060606060605F5F5F5F5FD3
:102E00005F5E5E5E5E5E5D5D5D5D5D000000000CB0
:102E1000026C0199015902CA01A801BC010000001D
:102E2000009D057005FB054D0563015D054E050020
:102E300000000089066C01FB05FA0500000000D0C7
:102E4000076C01FB05FA050D0A004265617421005B
:102E50006E616E00696E66006F766600496E697419
:102E600069616C697A696E672070756C7365206F33
:102E700078696D657465722E2E00496E697469619A
:102E80006C697A696E672E2E2E0053554343455365
:102E900053004661696C656420746F20696E6974C3
:102EA00069616C697A65207468652048524D2073A9
:102EB000656E736F72004641494C454400523A00BA
:102EC0002C00493A00486561727420726174652073
:102ED000E299A5203A0062706D202F2053704F3286
:102EE0003A00250042504D203A200053704F323AAC
:0A2EF000200042504D20203A20003F
:00000001FF
